:100000000C945E000C9486000C9486000C94860080
:100010000C9486000C9486000C9486000C94860048
:100020000C9486000C9486000C9486000C94860038
:100030000C9486000C9486000C9486000C94860028
:100040000C94C4020C9486000C9492020C946C02E2
:100050000C9486000C9486000C9486000C94860008
:100060000C9486000C948600000000080002010039
:100070000003040700000000000000000000000072
:10008000250028002B0000000000240027002A0083
:10009000040404040404040402020202020203032E
:1000A0000303030301020408102040800102040836
:1000B00010200102040810200E03120511241FBE97
:1000C000CFEFD8E0DEBFCDBF22E0A6E7B1E001C0B0
:1000D0001D92A632B207E1F711E0A0E0B1E0E0EC3A
:1000E000FEE002C005900D92A637B107D9F710E0E7
:1000F000CDE5D0E004C02197FE010E945205CC3529
:10010000D107C9F70E9482030C9453070C94000096
:1001100090E0FC01EC55FF4F249180579F4FFC016C
:100120008491882399F090E0880F991FFC01EA5789
:10013000FF4FA591B491FC01E458FF4F8591949134
:100140008FB7F894EC91E22BEC938FBF0895AF92A8
:10015000BF92CF92DF92EF92FF920F931F93CF93B4
:10016000DF936C017B018B01040F151FEB015E0116
:10017000AE18BF08C017D10759F06991D601ED91AB
:10018000FC910190F081E02DC6010995892B79F74A
:10019000C501DF91CF911F910F91FF90EF90DF90FC
:1001A000CF90BF90AF900895FC01538D448D252FC3
:1001B00030E0842F90E0821B930B541710F0CF9601
:1001C000089501970895FC01918D828D981761F033
:1001D000A28DAE0FBF2FB11D5D968C91928D9F5F4A
:1001E0009F73928F90E008958FEF9FEF0895FC0129
:1001F000918D828D981731F0828DE80FF11D858DDC
:1002000090E008958FEF9FEF0895FC01918D228D6E
:10021000892F90E0805C9F4F821B91098F739927F3
:1002200008958FE791E00E94050121E0892B09F4F0
:1002300020E0822F089580E090E0892B29F00E9431
:10024000110181110C9400000895FC01A48DA80FE8
:10025000B92FB11DA35ABF4F2C91848D90E0019608
:100260008F739927848FA689B7892C93A089B18928
:100270008C91837080648C93938D848D981306C0C9
:100280000288F389E02D80818F7D80830895EF922D
:10029000FF920F931F93CF93DF93EC0181E0888F40
:1002A0009B8D8C8D98131AC0E889F989808185FF10
:1002B00015C09FB7F894EE89FF896083E889F989B2
:1002C00080818370806480839FBF81E090E0DF91B4
:1002D000CF911F910F91FF90EF900895F62E0B8D07
:1002E00010E00F5F1F4F0F731127E02E8C8D8E11C2
:1002F0000CC00FB607FCFACFE889F989808185FF29
:10030000F5CFCE010E942501F1CFEB8DEC0FFD2F33
:10031000F11DE35AFF4FF0829FB7F8940B8FEA89E3
:10032000FB8980818062CFCFCF93DF93EC01888DF2
:100330008823B9F0AA89BB89E889F9898C9185FD60
:1003400003C0808186FD0DC00FB607FCF7CF8C91EE
:1003500085FFF2CF808185FFEDCFCE010E94250180
:10036000E9CFDF91CF91089590E0FC01E859FF4F6C
:100370002491FC01EC55FF4F3491FC01E057FF4FF5
:10038000E491EE23C9F0222339F0233001F1A8F4DF
:10039000213019F1223029F1F0E0EE0FFF1FE4586F
:1003A000FF4FA591B4918FB7F894EC91611126C0DD
:1003B00030953E233C938FBF08952730A9F0283015
:1003C000C9F0243049F7809180008F7D03C080916F
:1003D00080008F7780938000DFCF84B58F7784BDD6
:1003E000DBCF84B58F7DFBCF8091B0008F7780937A
:1003F000B000D2CF8091B0008F7DF9CF3E2BDACF05
:100400003FB7F89480917B0190917C01A0917D0190
:10041000B0917E0126B5A89B05C02F3F19F001962B
:10042000A11DB11D3FBFBA2FA92F982F8827BC014E
:10043000CD01620F711D811D911D42E0660F771F76
:10044000881F991F4A95D1F7089520912002309175
:100450002102232B39F421E0FC018081882361F003
:1004600020E00AC0BC0180911C0290911D020E94F4
:10047000430721E0892BA1F7822F0895CF93DF93C3
:10048000EC0180911C0290911D02009759F020917F
:100490001E0230911F022C173D0720F081E0DF91F2
:1004A000CF910895BE016F5F7F4F0E947D06009738
:1004B00089F090931D0280931C02D0931F02C09379
:1004C0001E022091200230912102232B39F7FC01DA
:1004D0001082E4CF80E0E3CF1F920F920FB60F920D
:1004E00011242F933F934F935F936F937F938F9339
:1004F0009F93AF93BF93EF93FF938FE791E00E9499
:100500002501FF91EF91BF91AF919F918F917F91C5
:100510006F915F914F913F912F910F900FBE0F9070
:100520001F9018951F920F920FB60F9211242F93C0
:100530008F939F93EF93FF93E0918F01F091900140
:100540008081E0919501F091960182FD1BC0908120
:10055000809198018F5F8F7320919901821741F0EC
:10056000E0919801F0E0E158FE4F958F809398015B
:10057000FF91EF919F918F912F910F900FBE0F9050
:100580001F9018958081F4CF1F920F920FB60F9293
:1005900011242F933F938F939F93AF93BF93809199
:1005A000770190917801A0917901B0917A01309111
:1005B000760123E0230F2D3758F50196A11DB11DBB
:1005C000209376018093770190937801A09379012D
:1005D000B0937A0180917B0190917C01A0917D0183
:1005E000B0917E010196A11DB11D80937B01909376
:1005F0007C01A0937D01B0937E01BF91AF919F914B
:100600008F913F912F910F900FBE0F901F901895D3
:1006100026E8230F0296A11DB11DD2CF10928201B0
:100620001092810188EE93E0A0E0B0E08093830116
:1006300090938401A0938501B09386018AE091E0B4
:100640009093800180937F0185EC90E090938C01E2
:1006500080938B0184EC90E090938E0180938D01C8
:1006600080EC90E09093900180938F0181EC90E07A
:10067000909392018093910182EC90E09093940189
:100680008093930186EC90E090939601809395017E
:10069000109298011092990110929A0110929B0168
:1006A00010921D0210921C0210921F0210921E0244
:1006B000109221021092200290E080E00E943E02FF
:1006C00020911C0230911D02811113C021153105AA
:1006D00019F0C9010E94F40510921D0210921C022B
:1006E000109221021092200210921F0210921E02FC
:1006F000089510922102109220026AE171E0C9016E
:100700000C944C07CF93DF9300D0CDB7DEB778942D
:1007100084B5826084BD84B5816084BD85B5826006
:1007200085BD85B5816085BD80916E0081608093B7
:100730006E00109281008091810082608093810020
:100740008091810081608093810080918000816030
:10075000809380008091B10084608093B10080918B
:10076000B00081608093B00080917A0084608093B3
:100770007A0080917A00826080937A0080917A007A
:10078000816080937A0080917A00806880937A00FB
:100790001092C100E0918F01F091900182E080837E
:1007A000E0918B01F0918C011082E0918D01F0912C
:1007B0008E018FEC808310929701E0919301F0916C
:1007C000940186E08083E0919101F0919201808113
:1007D00080618083E0919101F09192018081886035
:1007E0008083E0919101F091920180818068808303
:1007F000E0919101F091920180818F7D808386E06C
:100800000E94880085E00E94880084E00E948800A1
:1008100083E00E94880090E0E92E90E0F92E8FE7B7
:1008200091E00E940501892B09F449C00E94000251
:100830002B013C0184E0882E912CA12CB12C0E942C
:1008400000026419750986099709683E734081059D
:100850009105A8F321E0821A9108A108B10888EE59
:10086000480E83E0581E611C711C81149104A10480
:10087000B10429F78FE791E00E94E30089831A828F
:1008800000912002109121020F5F1F4FC8010E94AA
:100890003E02882321F220911C0230911D0280919A
:1008A000200290912102BE016F5F7F4F820F931F44
:1008B0000E944C071093210200932002B0CF409178
:1008C0002002509121024115510509F44EC060915A
:1008D0001C0270911D028FE791E00E94A70042E088
:1008E00050E068E171E08FE791E00E94A7008DE49D
:1008F00091E00E942502882319F061E086E017C08C
:100900008CE591E00E942502882311F060E0F6CF8B
:100910008BE191E00E94250261E0811107C082E233
:1009200091E00E942502882361F160E085E00E9449
:10093000B40190E080E00E943E0220911C023091C0
:100940001D02811165C02115310519F0C9010E94F0
:10095000F40510921D0210921C02109221021092B6
:10096000200210921F0210921E02E114F10409F4F9
:1009700056CF0E941101882309F451CF0E94000034
:100980004ECF8AE291E00E94250261E0811107C00A
:1009900088E391E00E942502882319F060E084E05A
:1009A000C6CF87E491E00E94250261E0811107C073
:1009B00086E591E00E942502882319F060E083E03B
:1009C000B6CF86E691E00E942502882369F061E0B7
:1009D00083E00E94B40161E084E00E94B40161E020
:1009E00085E00E94B40189CF8DE691E00E94250246
:1009F000882309F49ECF60E083E00E94B40160E0A8
:100A000084E00E94B40160E085E00E94B4017ECFE2
:100A100010922102109220026AE171E0C9010E9445
:100A20004C07A3CF80911C0290911D02009711F0FA
:100A30000C94F40508952F923F924F925F926F921B
:100A40007F928F929F92AF92BF92CF92DF92EF925E
:100A5000FF920F931F93CF93DF93CDB7DEB7CA1BDF
:100A6000DB0B0FB6F894DEBF0FBECDBF09942A880A
:100A7000398848885F846E847D848C849B84AA84B2
:100A8000B984C884DF80EE80FD800C811B81AA813F
:100A9000B981CE0FD11D0FB6F894DEBF0FBECDBF0A
:100AA000ED010895EE0FFF1F0590F491E02D0994DC
:100AB0000F931F93CF93DF938230910510F482E060
:100AC00090E0E0912402F091250230E020E0B0E0D7
:100AD000A0E0309799F42115310509F44AC0281B8C
:100AE000390B24303105D8F58A819B816115710558
:100AF00089F1FB0193838283FE0111C04081518102
:100B00000281138148175907E0F04817590799F4F3
:100B1000109761F012960C93129713961C933296CD
:100B2000CF01DF91CF911F910F910895009324027F
:100B300010932502F4CF2115310551F042175307C8
:100B400038F0A901DB019A01BD01DF01F801C1CF35
:100B5000EF01F9CF9093250280932402CDCFFE01BF
:100B6000E20FF31F81939193225031093983288337
:100B7000D7CF2091220230912302232B41F42091E0
:100B8000020130910301309323022093220220912D
:100B90000001309101012115310541F42DB73EB717
:100BA0004091040150910501241B350BE091220274
:100BB000F0912302E217F307A0F42E1B3F0B281736
:100BC000390778F0AC014E5F5F4F2417350748F0C6
:100BD0004E0F5F1F50932302409322028193919303
:100BE0009FCFF0E0E0E09CCFCF93DF930097E9F058
:100BF000FC01329713821282A0912402B091250247
:100C0000ED0130E020E01097A1F420813181820FC6
:100C1000931F20912202309123022817390709F0EF
:100C200061C0F0932302E0932202DF91CF910895F7
:100C3000EA01CE17DF07E8F54A815B819E01411585
:100C40005105B1F7E901FB83EA8349915991C40F3A
:100C5000D51FEC17FD0761F4808191810296840F06
:100C6000951FE90199838883828193819B838A837D
:100C7000F0E0E0E012968D919C9113970097B9F502
:100C80002D913C911197CD010296820F931F2091D7
:100C90002202309123022817390739F6309751F58F
:100CA0001092250210922402B0932302A0932202F4
:100CB000BCCFD383C28340815181840F951FC81755
:100CC000D90761F44E5F5F4F88819981480F591FA2
:100CD000518340838A819B819383828321153105CF
:100CE00009F0B0CFF0932502E09324029ECFFD01DE
:100CF000DC01C0CF13821282D7CFB0E0A0E0E3E8DE
:100D0000F6E00C941D058C01009751F4CB010E9474
:100D100058058C01C801CDB7DEB7E0E10C94390568
:100D2000FC01E60FF71F9C0122503109E217F3077F
:100D300008F49DC0D901CD91DC911197C617D70752
:100D400098F0C530D10530F3CE0104978617970788
:100D500008F3C61BD70B2297C193D1936D937C9355
:100D6000CF010E94F405D6CF5B01AC1ABD0A4C013D
:100D70008C0E9D1EA0912402B0912502512C412C75
:100D8000F12CE12C109731F58091220290912302F1
:100D90008815990509F05CC04616570608F058C03A
:100DA0008091000190910101009741F48DB79EB7A9
:100DB0004091040150910501841B950BE817F90738
:100DC00008F055C0F0932302E0932202F9017183E9
:100DD0006083A0CF8D919C91119712966C90129781
:100DE00013967C901397A815B90559F56C0142E04C
:100DF000C40ED11CCA14DB0420F1AC014A195B09F2
:100E0000DA011296159780F06282738251834083D3
:100E1000D9016D937C93E114F10471F0D70113961D
:100E2000FC93EE93129776CF22968C0F9D1FF901BB
:100E300091838083F301EFCFF0932502E0932402A6
:100E400069CF4816590608F42C017D01D3019ACFC9
:100E5000CB010E9458057C01009749F0AE01B80112
:100E60000E943A07C8010E94F405870153CF10E0A1
:100E700000E050CFFB01DC0102C001900D92415017
:100E80005040D8F70895FB01DC018D910190801945
:100E90000110D9F3990B0895FB01DC0101900D922B
:100EA0000020E1F7089510E0CDE5D0E004C0FE0198
:100EB0000E9452052196CE35D107C9F7F894FFCF8D
:100EC000000026028000000000004701A700D400B7
:100ED00094010501E300F7000D0A0066616E206FC2
:100EE0006E0066616E206F6666006E6967687420CA
:100EF0006C616D70206F6E006E69676874206C6144
:100F00006D70206F666600677265656E206C69673C
:100F10006874206F6E00677265656E206C69676823
:100F200074206F666600616C6C206F6E00616C6C83
:060F3000206F6666000060
:00000001FF
